:10000000002000100D0100008501000085010000A6
:1000100000000000000000000000000000000000E0
:10002000000000000000000000000000850100004A
:100030000000000000000000850100008D010000AC
:100040008501000085010000850100008501000098
:100050008501000085010000850100008501000088
:100060008501000085010000850100008501000078
:100070008501000085010000850100008501000068
:100080008501000085010000850100008501000058
:100090008501000085010000850100008501000048
:1000A0008501000085010000850100008501000038
:1000B0008501000085010000850100008501000028
:1000C00080B500AF0B4B00221A600B4B23221A6045
:1000D0000A4B0A4A126880218A431A60084B01229F
:1000E0001A60084B03221A60074B01221A60BD46B2
:1000F00080BDC046408004400880044038820440EF
:1001000044800440708004407480044080B584B012
:1001100000AF174BFB60174BBB60174A154BD31A48
:100120007B6007E0BB685A1CBA60FA68511CF96032
:1001300012781A707B685A1E7A60002BF2D10F4B2E
:10014000BB600F4A0D4BD31A7B6004E0BB685A1C9E
:10015000BA6000221A707B685A1E7A60002BF5D1B3
:10016000FFF7AEFF00F020F9BD4604B080BDC046E9
:10017000080500000000001004000010040000103A
:100180001800001080B500AFFEE7C04680B500AF94
:100190002B4B1B685A1C2A4B1A60294B1A68294B97
:1001A0009A4202DD264B00221A60274B1B68022B65
:1001B00014D002DC012B05D034E0032B1AD0042B21
:1001C00024D02FE0214B0E221A60204B1F4A1168C9
:1001D0001F4A126852010A431A6023E01B4B162281
:1001E0001A601A4B194A1168194A526852010A4397
:1001F0001A6017E0154B1A221A60144B134A116843
:10020000134A926852010A431A600BE00F4B1C22FA
:100210001A600E4B0D4A11680D4AD26852010A430A
:100220001A60C046084B1B685A1C074B1A60064BE5
:100230001B68042B02DD044B01221A60BD4680BD01
:10024000040000103F420F0000000010FC3F00506F
:100250000800001080B500AF074B074A126807215D
:100260000A431A60054B064A1A60064B05221A60BB
:1002700062B6BD4680BDC04610E000E014E000E07C
:100280007FBB000018E000E080B582B000AF78606E
:10029000C0467B685A1E7A60002BFAD1BD4602B078
:1002A00080BDC04680B582B000AF78607B68181C06
:1002B0000A2100F013F90B1C1A1C224B5200D35ACE
:1002C0001AB2214B1A607B68181C0A2100F0B0F8A2
:1002D000031C7B607B68181C0A2100F0FFF80B1CD4
:1002E0001A1C184B5200D35A1AB2174B5A607B682B
:1002F000181C0A2100F09CF8031C7B607B68181C0A
:100300000A2100F0EBF80B1C1A1C0E4B5200D35ABA
:100310001AB20D4B9A607B68181C0A2100F088F80D
:10032000031C7B607B68181C0A2100F0D7F80B1CAB
:100330001A1C044B5200D35A1AB2034BDA60BD4662
:1003400002B080BDF40400000800001080B500AFCA
:100350000D4B0D4A12680D490A431A600C4B0D4AA9
:100360001A600D4B1E221A600C4B0C4A1268802139
:1003700049000A431A600A4B01221A60094B012204
:100380001A60BD4680BDC046808004404000010028
:1003900000800050FE0F0000FC3F0050344004403D
:1003A000684004407440044080B584B000AFFFF75B
:1003B00051FFFFF7CBFF0023FB603B23BB601823FB
:1003C0007B6001233B6027E0BB68013BBB60BB68EF
:1003D000002B05DA3B23BB607B68013B7B6003E0BD
:1003E00002E00020FFF75EFF7B68002B02D1BB68B4
:1003F000002BF6D07B6864225A43BB68D318181CC4
:10040000FFF750FF084B181CFFF73EFFFA68074B39
:100410009A4201DD0023FB603B68012BD4D0181CFD
:10042000BD4604B080BDC046003E49000F27000015
:10043000002941D010B4041C4C40A44601230022E2
:10044000002900D54942002800D5404288422CD3DB
:1004500001242407A14204D2814202D209011B01D6
:10046000F8E7E400A14204D2814202D249005B00D5
:10047000F8E7884201D3401A1A434C08A04202D33D
:10048000001B5C0822438C08A04202D3001B9C087E
:100490002243CC08A04202D3001BDC0822430028E0
:1004A00003D01B0901D00909E3E7101C6446002CA6
:1004B00000D5404210BC7047002806D003DB002066
:1004C000C043400801E08020000607B4024802A1B2
:1004D0004018029003BDC046190000000029EBD06F
:1004E00003B5FFF7A7FF0EBC4243891A1847C04661
:0404F0007047C0464B
:1004F4003F0006005B004F0066006D007D000700B2
:040504007F006F0005
:0405080001000000EE
:00000001FF
