:10000000002000100D0100008501000085010000A6
:1000100000000000000000000000000000000000E0
:10002000000000000000000000000000850100004A
:10003000000000000000000085010000F50A00003B
:100040008501000085010000850100008501000098
:100050008501000085010000850100008501000088
:100060008501000085010000850100008501000078
:100070008501000085010000850100008501000068
:100080008501000085010000850100008501000058
:100090008501000085010000850100008501000048
:1000A0008501000085010000850100008501000038
:1000B0008501000085010000850100008501000028
:1000C00080B500AF0B4B00221A600B4B23221A6045
:1000D0000A4B0A4A126880218A431A60084B01229F
:1000E0001A60084B03221A60074B01221A60BD46B2
:1000F00080BDC046408004400880044038820440EF
:1001000044800440708004407480044080B584B012
:1001100000AF174BFB60174BBB60174A154BD31A48
:100120007B6007E0BB685A1CBA60FA68511CF96032
:1001300012781A707B685A1E7A60002BF2D10F4B2E
:10014000BB600F4A0D4BD31A7B6004E0BB685A1C9E
:10015000BA6000221A707B685A1E7A60002BF5D1B3
:10016000FFF7AEFF00F0D4FCBD4604B080BDC04632
:100170002C0F0000000000100C0000100C000010FC
:10018000C401001080B500AFFEE7C04690B583B053
:1001900000AF00F023FB00F0E3FA13E0444B181C1F
:1001A00000F036FBFC1D00F045FB031C2370FB1D1B
:1001B0001B78532B03D0FB1D1B78732B02D13D4BB7
:1001C00001221A603B4B1B68002BE7D03A4B181CEE
:1001D00000F0D6F9394A384B101C191C00F0DEF833
:1001E000364B181C00F064F9354B181C00F010FB5E
:1001F000FC1D00F01FFB031C2370FB1DFA1D127871
:1002000020210A431A70FB1D1B786E2B11D006DCCF
:10021000652B28D0682B09D0232B3CD0E8E7732B23
:1002200013D0772B2BD0702B3CD0E1E700F098FA5D
:100230003DE0224A204B6E20111C1A1C00F048F8A9
:10024000204B181C00F0E4FA31E01C4BDB7E01333C
:10025000DAB21A4BDA76194A174B7320111C1A1CA2
:1002600000F036F823E0154A134B6520111C1A1CC8
:1002700000F02EF8144B181C00F0CAFA17E00F4AD1
:100280000D4B7720111C1A1C00F022F80F4B181C84
:1002900000F0BEFA0BE0084A084B101C191C00F0D5
:1002A0001DFA04E0054B181C00F002F9C0469FE758
:1002B000D00B00000C00001018000010A801001066
:1002C000EC0B0000100C00001C0C0000280C0000BF
:1002D00080B586B000AFB9607A603B1C0F33021C5A
:1002E0001A702B4B9B7E7B61294BDB7E3B613B1C59
:1002F0000F331B786E2B02D13B69013B3B613B1CEA
:100300000F331B78732B02D13B6901333B613B1CDC
:100310000F331B78652B02D17B6901337B613B1C5A
:100320000F331B78772B02D17B69013B7B617B69A3
:10033000002B02DA00237B6127E07B69142B02DDAE
:1003400014237B6121E03B69002B02DA00233B612F
:100350001BE03B69132B02DC14233B6115E00D49C4
:100360007A69131C9B009B189B003A699B182A22F0
:100370005A54094B181C00F005FB7B69DAB2044B98
:100380009A763B69DAB2024BDA76BD4606B080BD9A
:10039000A801001018000010340C000090B585B0C2
:1003A00000AF786039600023FB603B1C0B330022F8
:1003B0001A703E4B181C00F0E5FA18E03C1C0B3498
:1003C00000F038FA031C23703B1C0B331B780D2BF9
:1003D0000DD03B1C0B331B78181C00F0B1FAFB68E6
:1003E0005A1CFA607A68391C0B310978D154FB68C1
:1003F000132B04DC3B1C0B331B780D2BDED17A68EE
:10040000FB68D31800221A707B6864225A75322068
:1004100000F026FA031CDBB23233DAB27B68DA75FD
:10042000322000F01DFA031CDBB23233DAB27B68F3
:100430001A76322000F014FA031CDBB23233DAB23F
:100440007B689A750A2000F00BFA031CDBB20A33B2
:10045000DAB27B685A76142000F002FA021C3B1CC8
:100460000A331A70142000F0FBF9021C3B1C0933FC
:100470001A703B1C0A331A783B1C09331878396808
:10048000131C9B009B189B001B185B5C2E2BE2D15E
:100490007B683A1C0A3212789A767B683A1C0932D9
:1004A0001278DA76BD4605B090BDC046480C000013
:1004B00080B582B000AF7860284B181C00F062FA5B
:1004C0007B68181C00F05EFA254B181C00F05AFAE5
:1004D000244B181C00F056FA7B685B7D181C00F05A
:1004E00085FA214B181C00F04DFA7B68DB7D181C47
:1004F00000F07CFA1D4B181C00F044FA7B681B7E50
:10050000181C00F073FA1A4B181C00F03BFA7B68B9
:100510009B7D181C00F06AFA164B181C00F032FA8A
:100520007B685B7E181C00F061FA134B181C00F00E
:1005300029FA7B689B7E181C00F058FA0F4B181C98
:1005400000F020FA7B68DB7E181C00F04FFA044BA9
:10055000181C00F017FABD4602B080BD640C000004
:10056000780C00007C0C0000880C0000980C000047
:10057000A40C0000B80C0000C40C0000D40C000057
:1005800080B584B000AF78600023FB6015E00023E5
:10059000BB600CE07968FA68131C9B009B189B00F9
:1005A000BA689B182E225A54BB680133BB60BB68E3
:1005B000132BEFDDFB680133FB60FB68132BE6DDDB
:1005C0000023FB601BE00023BB6012E0642000F00E
:1005D00047F9031C5A2B09DD7968FA68131C9B0044
:1005E0009B189B00BA689B182A225A54BB68013397
:1005F000BB60BB68132BE9DDFB680133FB60FB6864
:10060000132BE0DD0023FB6021E00023BB6018E03A
:10061000642000F025F9031C5F2B0FDD032000F0A0
:100620001FF9031C2B4AD05C7968FA68131C9B00E5
:100630009B189B00BA689B18021C5A54BB68013374
:10064000BB60BB68132BE3DDFB680133FB60FB6819
:10065000132BDADD0023FB6021E00023BB6018E0F0
:10066000642000F0FDF8031C622B0FDD022000F077
:10067000F7F8031C184AD05C7968FA68131C9B00D1
:100680009B189B00BA689B18021C5A54BB68013324
:10069000BB60BB68132BE3DDFB680133FB60FB68C9
:1006A000132BDADD142000F0DBF8031CFB601420B0
:1006B00000F0D6F8031CBB607968FA68131C9B0035
:1006C0009B189B00BA689B1858225A54BD4604B028
:1006D00080BDC046000000100400001080B584B04A
:1006E00000AF786039601D4B181C00F04BF90023F7
:1006F000BB602DE00023FB601EE03B689B7E1A1C64
:10070000FB689A4209D13B68DB7E1A1CBB689A429F
:1007100003D1402000F014F90BE07968FA68131C4B
:100720009B009B189B00BA689B185B5C181C00F030
:1007300007F9FB680133FB60FB68132BDDDD0D203F
:1007400000F0FEF80A2000F0FBF8BB680133BB6044
:10075000BB68132BCEDDBD4604B080BDD80C0000B5
:1007600080B500AF144B181C00F00CF9134B181C8B
:1007700000F008F9124B181C00F004F9114B181C7A
:1007800000F000F9104B181C00F0FCF80F4B181C7F
:1007900000F0F8F80E4B181C00F0F4F80D4B181C84
:1007A00000F0F0F8044B181C00F0ECF80A4B181C91
:1007B00000F0E8F8BD4680BDEC0C0000280D0000FC
:1007C000640D0000A00D0000DC0D0000180E0000FC
:1007D000540E0000900E0000CC0E000080B500AF5B
:1007E000084B181C00F0CEF8074B181C00F0CAF894
:1007F000044B181C00F0C6F8044B181C00F0C2F89B
:10080000BD4680BDEC0C0000D80E0000780C000046
:1008100080B582B000AF78607B68181C00F0B2F839
:10082000034B181C00F0AEF8BD4602B080BDC046B8
:10083000CC0E000090B583B000AFFB1D00221A70F3
:1008400004E0FC1D00F094F8031C2370FB1D1B78D2
:10085000002BF6D0FB1D1B78181CBD4603B090BDC5
:1008600080B582B000AF786000F008F9021C7B68A8
:10087000101C191C00F0A0F90B1C181CBD4602B07E
:1008800080BDC04680B500AF234B234A1268234980
:100890000A431A60224B224A126801210A431A6055
:1008A0001F4B1F4A126806218A431A601D4B1D4ABE
:1008B000126801210A431A601A4B1A4A126806216B
:1008C0008A431A60144B144A1268802149010A4372
:1008D0001A60154B01221A60144B144A12688021C9
:1008E0000A431A60124B10221A60124B38221A6007
:1008F000114B01221A600D4B0C4A126803210A4366
:100900001A600E4B07221A60084B084A12688021B1
:100910008A431A60BD4680BD8080044040000100CB
:10092000A4400440A8400440988004400C8000404B
:100930002880004000800040048000400880004083
:1009400080B582B000AF021CFB1D1A70064BFA1D69
:1009500012781A60C046054B1A6820231340FAD05B
:10096000BD4602B080BDC0460080004014800040FB
:1009700080B500AF024B1B68DBB2181CBD4680BDC2
:100980000080004080B582B000AF786007E07B68EF
:100990001B78181CFFF7D4FF7B6801337B607B68F2
:1009A0001B78002BF3D1BD4602B080BD80B582B06C
:1009B00000AF78607B68002B07DB7B68092B04DCC9
:1009C0007B68DBB23033DBB20BE07B68092B07DDE1
:1009D0007B680F2B04DC7B68DBB23733DBB200E0D3
:1009E0007A23181CBD4602B080BDC04680B586B0D3
:1009F00000AF786008237B613A1C08327B69D3180A
:100A000000221A707B69013B7B6112E07A680F2338
:100A10001340181CFFF7CAFF031C1A1C391C0831AD
:100A20007B69CB181A707B681B097B607B69013B73
:100A30007B617B69002BE9DA3B1C0833181CFFF74C
:100A4000A1FFBD4606B080BD80B500AF074B074A89
:100A5000126807210A431A60054B064A1A60064BC2
:100A600005221A6062B6BD4680BDC04610E000E0B7
:100A700014E000E07FBB000018E000E080B582B029
:100A800000AF00237B60194B1B68002B25D1174B4F
:100A900001221A60164B1A6880231B051340DA0ED8
:100AA000134B19688023DB050B409B0F53407B6081
:100AB0007B68DB437B607A68012313407B600C4BCF
:100AC0001B685A000A4B1A60094B1A687B681A4364
:100AD000074B1A60054B00221A60054B1B685B012F
:100AE0005B09181CBD4602B080BDC0461400001052
:100AF0000800001080B500AF044B1B685A1C034B64
:100B00001A60FFF7BBFFBD4680BDC0461000001055
:100B100080B500AFFFF798FFFFF7B4FE034B181C3A
:100B2000FFF730FFFFF732FBFCE7C046140F000071
:100B3000002934D00123002210B488422CD3012490
:100B40002407A14204D2814202D209011B01F8E725
:100B5000E400A14204D2814202D249005B00F8E7DE
:100B6000884201D3401A1A434C08A04202D3001B0A
:100B70005C0822438C08A04202D3001B9C0822433D
:100B8000CC08A04202D3001BDC082243002803D07B
:100B90001B0901D00909E3E7101C10BC70470028AD
:100BA00001D00020C04307B4024802A140180290BF
:100BB00003BDC046190000000029F0D003B5FFF7BF
:100BC000B9FF0EBC4243891A1847C0467047C04659
:100BD0005072657373205320746F20737461727444
:100BE0002061206E65772067616D6500596F752003
:100BF000656E7465722061206461726B656E6564F8
:100C000020726F6F6D2E2E2E2E2E2E0D0A000000DC
:100C1000476F696E67206E6F72746800476F696E08
:100C20006720656173740000476F696E67207765A0
:100C300073740000596F7520686974206120726FA9
:100C4000636B206D61746500456E74657220746815
:100C50006520706C617965722773206E616D653AED
:100C6000200000000D0A506C617965722064657483
:100C700061696C730D0A00000D0A00006865616C03
:100C800074683A20000000000D0A737472656E6784
:100C900074683A20000000000D0A6D616769633ACC
:100CA000200000000D0A696E74656C6C6967656EE2
:100CB00063653A20000000000D0A7765616C746876
:100CC0003A2000000D0A4C6F636174696F6E203A20
:100CD00020000000202C20000D0A54686520647557
:100CE0006E67656F6E3A200D0A0000002A2A2A2AD4
:100CF0002A2A2A2A2A2A2A2A2A2A2A2A2A2A2A2A54
:100D00002A2A2A2A2A2A2A2A2A2A2A2A2A2A2A2A43
:100D10002A2A2A2A2A2A2A2A2A2A2A2A2A2A2A2A33
:100D20002A2A2A2A0D0A00002A2A2A2A20202020DC
:100D300020202020202020417661696C61626C6552
:100D400020636F6D6D616E64733A20202020202037
:100D50002020202020202020202020202A2A2A2A6B
:100D60000D0A00002A2A2A2A204E2C532C452C57E3
:100D7000203A20676F206E6F7274682C20736F7535
:100D800074682C20656173742C207765737420203F
:100D900020202020202020202A2A2A2A0D0A000094
:100DA0002A2A2A2A2050203A2073686F7720706CF4
:100DB000617965722064657461696C7320202020FC
:100DC0002020202020202020202020202020202023
:100DD000202020202A2A2A2A0D0A00002A2A2A2A2C
:100DE0002049203A207072696E7420696E76656EB3
:100DF000746F7279202020202020202020202020A5
:100E000020202020202020202020202020202020E2
:100E10002A2A2A2A0D0A00002A2A2A2A2044203AAD
:100E20002064726F70206974656D2020202020205E
:100E300020202020202020202020202020202020B2
:100E40002020202020202020202020202A2A2A2A7A
:100E50000D0A00002A2A2A2A2057203A207769659D
:100E60006C64206974656D202020202020202020C3
:100E70002020202020202020202020202020202072
:100E800020202020202020202A2A2A2A0D0A0000A3
:100E90002A2A2A2A2043203A20436173742073703F
:100EA000656C6C2020202020202020202020202065
:100EB0002020202020202020202020202020202032
:100EC000202020202A2A2A2A0D0A00000D0A526515
:100ED0006164790D0A0000002A2A2A2A2020202095
:100EE000202057656C636F6D6520746F20446E44DD
:100EF000206F6E20746865204C50433131313420AE
:100F00002020202020202020202020202A2A2A2AB9
:100F10000D0A00004C5043313131342E20426F6FA6
:0C0F200074696E672E2E2E200D0A000052
:0C0F2C0068736D674F544200A5A5A5A591
:00000001FF
